:020000040800F2
:20000000000002209D2200083D1E00083F1E0008411E0008431E0008451E000800000000F4
:2000200000000000000000000000000001A20108471E000800000000A1A201080F810108C2
:20004000ED220008ED220008ED220008ED220008ED220008ED220008ED220008ED220008E8
:20006000ED220008ED220008ED220008491E0008591E0008691E0008791E0008891E000870
:20008000ED220008ED220008991E0008ED220008A91E0008ED220008ED220008ED22000848
:2000A000ED220008B91E0008ED220008ED220008ED220008C91E0008ED220008ED220008E8
:2000C000ED220008ED220008ED220008ED220008ED220008ED220008ED220008ED22000868
:2000E000ED220008ED220008ED220008ED220008ED220008ED220008ED220008FD1E00083C
:20010000ED220008ED220008ED220008ED220008ED220008ED220008ED220008ED22000827
:200120000D1F00081D1F0008ED220008ED220008ED2200082D1F00083D1F0008ED22000833
:20014000ED220008ED220008ED22000800000000000000000000000000000000000000005A
:20016000000000000000000000000000ED220008ED220008ED220008ED220008ED2200080C
:20018000ED220008ED220008ED220008ED220008ED22000800000000ED220008ED220008BE
:2001A000ED220008ED220008ED220008ED220008ED220008ED220008ED2200084D1F00082A
:2001C000ED220008ED220008ED220008ED220008ED220008ED220008000000000000000095
:2001E00010B5054C237833B9044B13B10448AFF300800123237010BD5C03002000000000DE
:200200009CE4010808B5034B1BB103490348AFF3008008BD00000000600300209CE40108F4
:2002200001F0FF01102A2BDB10F0070F08D010F8013B013A8B422DD010F0070F42B3F6D184
:20024000F0B441EA012141EA014122F007047FF000070023F0E80256083C85EA010586EA31
:20026000010685FA47F5A3FA87F586FA47F6A5FA87F68EB9EED1F0BC01F0FF0102F007022C
:2002800032B110F8013B013A83EA010313B1F8D10020704701387047002D06BF354603388F
:2002A000073815F0010F07D1013015F4807F02BF013015F4C03F0130F0BC0138704700BF53
:2002C000034613F8012B002AFBD1181A0138704781F0004102E000BF83F0004330B54FEA5F
:2002E00041044FEA430594EA050F08BF90EA020F1FBF54EA000C55EA020C7FEA645C7FEA4D
:20030000655C00F0E2804FEA5454D4EB5555B8BF6D420CDD2C4480EA020281EA030382EAB6
:20032000000083EA010180EA020281EA0303362D88BF30BD11F0004F4FEA01314FF4801C3E
:200340004CEA113102D0404261EB410113F0004F4FEA03334CEA133302D0524263EB43030C
:2003600094EA050F00F0A780A4F10104D5F1200E0DDB02FA0EFC22FA05F2801841F100017A
:2003800003FA0EF2801843FA05F359410EE0A5F120050EF1200E012A03FA0EFC28BF4CF0CE
:2003A000020C43FA05F3C01851EBE37101F0004507D54FF0000EDCF1000C7EEB00006EEB98
:2003C0000101B1F5801F1BD3B1F5001F0CD349085FEA30004FEA3C0C04F101044FEA445230
:2003E00012F5800F80F09A80BCF1004F08BF5FEA500C50F1000041EB045141EA050130BD95
:200400005FEA4C0C404141EB0101013C28BFB1F5801FE9D291F0000F04BF01460020B1FA03
:2004200081F308BF2033A3F10B03B3F120020CDA0C3208DD02F1140CC2F10C0201FA0CF0F2
:2004400021FA02F10CE002F11402D8BFC2F1200C01FA02F120FA0CFCDCBF41EA0C01904070
:20046000E41AA2BF01EB0451294330BD6FEA04041F3C1CDA0C340EDC04F11404C4F12002C3
:2004800020FA04F001FA02F340EA030021FA04F345EA030130BDC4F10C04C4F1200220FA49
:2004A00002F001FA04F340EA0300294630BD21FA04F0294630BD94F0000F83F4801306BF02
:2004C00081F480110134013D4EE77FEA645C18BF7FEA655C29D094EA050F08BF90EA020F67
:2004E00005D054EA000C04BF1946104630BD91EA030F1EBF0021002030BD5FEA545C05D111
:200500004000494128BF41F0004130BD14F580043CBF01F5801130BD01F0004545F0FE4125
:2005200041F470014FF0000030BD7FEA645C1ABF194610467FEA655C1CBF0B46024650EA5A
:20054000013406BF52EA033591EA030F41F4002130BD00BF90F0000F04BF0021704730B58F
:200560004FF4806404F132044FF000054FF0000150E700BF90F0000F04BF0021704730B5A0
:200580004FF4806404F1320410F0004548BF40424FF000013EE700BF42004FEAE2014FEA80
:2005A00031014FEA02701FBF12F07F4393F07F4F81F06051704732F07F4208BF704793F0AE
:2005C0007F4F04BF41F40021704730B54FF4607401F0004521F000411CE700BF50EA0102FA
:2005E00008BF704730B54FF000050AE050EA010208BF704730B511F0004502D5404261EBDF
:2006000041014FF4806404F132045FEA915C3FF4D8AE4FF003025FEADC0C18BF03325FEA8D
:20062000DC0C18BF033202EBDC02C2F1200300FA03FC20FA02F001FA03FE40EA0E0021FAD1
:2006400002F11444BDE600BF70B54FF0FF0C4CF4E06C1CEA11541DBF1CEA135594EA0C0FA4
:2006600095EA0C0F00F0DEF82C4481EA030621EA4C5123EA4C5350EA013518BF52EA033527
:2006800041F4801143F4801338D0A0FB02CE4FF00005E1FB02E506F00042E0FB03E54FF016
:2006A0000006E1FB03569CF0000F18BF4EF0010EA4F1FF04B6F5007F64F5407404D25FEA52
:2006C0004E0E6D4146EB060642EAC62141EA55514FEAC52040EA5E504FEACE2EB4F1FD0C16
:2006E00088BFBCF5E06F1ED8BEF1004F08BF5FEA500E50F1000041EB045170BD06F0004626
:2007000046EA010140EA020081EA0301B4EB5C04C2BFD4EB0C0541EA045170BD41F4801149
:200720004FF0000E013C00F3AB8014F1360FDEBF002001F0004170BDC4F10004203C35DA87
:200740000C341BDC04F11404C4F1200500FA05F320FA04F001FA05F240EA020001F000422A
:2007600021F0004110EBD37021FA04F642EB06015EEA430E08BF20EAD37070BDC4F10C0401
:20078000C4F1200500FA04F320FA05F001FA04F240EA020001F0004110EBD37041F10001BF
:2007A0005EEA430E08BF20EAD37070BDC4F1200500FA05F24EEA020E20FA04F301FA05F249
:2007C00043EA020321FA04F001F0004121FA04F220EA020000EBD3705EEA430E08BF20EAF1
:2007E000D37070BD94F0000F0FD101F00046400041EB010111F4801F08BF013CF7D041EAD7
:20080000060195F0000F18BF704703F00046520043EB030313F4801F08BF013DF7D043EA51
:200820000603704794EA0C0F0CEA135518BF95EA0C0F0CD050EA410618BF52EA4306D1D135
:2008400081EA030101F000414FF0000070BD50EA410606BF1046194652EA430619D094EAA4
:200860000C0F02D150EA013613D195EA0C0F05D152EA03361CBF104619460AD181EA030176
:2008800001F0004141F0FE4141F470014FF0000070BD41F0FE4141F4780170BD70B54FF0F5
:2008A000FF0C4CF4E06C1CEA11541DBF1CEA135594EA0C0F95EA0C0F00F0A7F8A4EB050492
:2008C00081EA030E52EA03354FEA013100F088804FEA03334FF0805545EA131343EA12634B
:2008E0004FEA022245EA111545EA10654FEA00260EF000419D4208BF964244F1FD0404F557
:20090000407402D25B084FEA3202B61A65EB03055B084FEA32024FF480104FF4002CB6EBA4
:20092000020E75EB030E22BFB61A754640EA0C005B084FEA3202B6EB020E75EB030E22BFC1
:20094000B61A754640EA5C005B084FEA3202B6EB020E75EB030E22BFB61A754640EA9C0062
:200960005B084FEA3202B6EB020E75EB030E22BFB61A754640EADC0055EA060E18D04FEA9F
:20098000051545EA16754FEA06164FEAC30343EA52734FEAC2025FEA1C1CC0D111F4801F8A
:2009A0000BD141EA00014FF000004FF0004CB6E711F4801F04BF01430020B4F1FD0C88BF08
:2009C000BCF5E06F3FF6AFAEB5EB030C04BFB6EB020C5FEA500C50F1000041EB045170BDD0
:2009E0000EF0004E4EEA113114EB5C04C2BFD4EB0C0541EA045170BD41F480114FF0000EC1
:200A0000013C90E645EA060E8DE60CEA135594EA0C0F08BF95EA0C0F3FF43BAF94EA0C0F5F
:200A20000AD150EA01347FF434AF95EA0C0F7FF425AF104619462CE795EA0C0F06D152EAC0
:200A400003353FF4FDAE1046194622E750EA410618BF52EA43067FF4C5AE50EA41047FF40D
:200A60000DAF52EA43057FF4EBAE12E74FF0FF3C06E000BF4FF0010C02E000BF4FF0010CD9
:200A80004DF804CD4FEA410C7FEA6C5C4FEA430C18BF7FEA6C5C1BD001B050EA410C0CBF0B
:200AA00052EA430C91EA030F02BF90EA020F0020704710F1000F91EA030F58BF994208BFA5
:200AC00090422CBFD8176FEAE37040F0010070474FEA410C7FEA6C5C02D150EA013C07D1FD
:200AE0004FEA430C7FEA6C5CD6D152EA033CD3D05DF8040B704700BF8446104662468C4604
:200B00001946634600E000BF01B5FFF7B7FF002848BF10F1000F01BD4DF808EDFFF7F4FFAC
:200B20000CBF012000205DF808FB00BF4DF808EDFFF7EAFF34BF012000205DF808FB00BF2E
:200B40004DF808EDFFF7E0FF94BF012000205DF808FB00BF4DF808EDFFF7CEFF94BF01206A
:200B600000205DF808FB00BF4DF808EDFFF7C4FF34BF012000205DF808FB00BF4FEA410C7A
:200B80007FEA6C5C02D150EA013C0AD14FEA430C7FEA6C5C02D152EA033C02D14FF00000E6
:200BA00070474FF0010070474FEA410212F5001215D211D56FF47873B3EB625212D94FEA61
:200BC000C12343F0004343EA505311F0004F23FA02F018BF404270474FF00000704750EA4C
:200BE000013005D111F0004008BF6FF0004070474FF00000704700BF4A0011D212F5001295
:200C000011D20DD56FF47873B3EB62520ED44FEAC12343F0004343EA505323FA02F0704764
:200C20004FF00000704750EA013002D14FF0FF3070474FF0000070474FEA4102B2F1E04323
:200C400024BFB3F5001CDCF1FE5C0DD901F0004C4FEAC0024CEA5070B2F1004F40EB830012
:200C600008BF20F00100704711F0804F21D113F13872BCBF01F00040704741F480114FEA13
:200C80005252C2F11802C2F1200C10FA0CF320FA02F018BF40F001004FEAC1234FEAD3239B
:200CA00003FA0CFC40EA0C0023FA02F34FEA4303CCE77FEA625307D150EA01331EBF4FF035
:200CC000FE4040F44000704701F0004040F0FE4040F40000704700BF10B592B000240F9494
:200CE00010941194089409940A940B940C940D940E942022214668461AF077FD38484FF0BE
:200D0000A04303604FF4403343608460C4600461446104238361047744770123036280F8E0
:200D200024404FF4AC62C2624FF48062026380F83830C46380F8404001F020FB00283FD10D
:200D400000230F930FA9264802F078FC00283AD1244B08934FF440030993234B0A930123B4
:200D60008DF82C3040F6FF730C934FF430630D9300230E9308A91A4802F084F830BB1A4B40
:200D8000009306230193002302937F2203920422049205936946124801F0F4FDC8B9134BF7
:200DA00008934FF0E07309934FF430630C9300230D9308A90A4802F065F868B912B010BD30
:200DC00000F0C0FDBCE700F0BDFDC1E700F0BAFDD5E700F0B7FDE2E700F0B4FDEEE700BF6C
:200DE0007C0300200000C07D002090B6FFFF170010B592B000240F9410941194089409944C
:200E00000A940B940C940D940E942022214668461AF0EBFC3348344B03604FF440334360B4
:200E20008460C4600461446104238361047744770123036280F824404FF4AC62C2624FF442
:200E40008062026380F83830C46380F8404001F095FA002836D100230F930FA9214802F0C5
:200E6000EDFB002831D1214B08934FF4400309931F4B0A9301238DF82C3000230C930D93C9
:200E80000E9308A9174801F0FDFF08BB184B009306230193002302937F2203920422049294
:200EA000059369460F4801F06DFDA0B9114B08934FF0E073099308A90A4801F0E3FF68B9C4
:200EC00012B010BD00F03EFDC5E700F03BFDCAE700F038FDDAE700F035FDE7E700F032FDDE
:200EE000EEE700BFE8030020000400500000C07D002098B6FFFF170010B590B00024099479
:200F00000A940B940C940D940E940F942022214601A81AF06AFC2E482E4B03604FF4403344
:200F200043608460C4600461446104238361047744770123036280F824404FF4AC62C262E1
:200F40004FF48062026380F83830C46380F8404001F014FA00282FD11F4B09934FF4400355
:200F60000A931E4B0B9301238DF8303000230D930E930F9309A9164801F084FFF8B9174B27
:200F8000019306230293002303937F2204920422059206930DEB02010D4801F0F3FC88B948
:200FA0000F4B09934FF0E0730A9309A9084801F069FF50B910B010BD00F0C4FCCCE700F0C8
:200FC000C1FCDCE700F0BEFCEAE700F0BBFCF1E754040020000500500000C07D00005AC76C
:200FE000FFFF170010B590B0002409940A940B940C940D940E940F942022214601A81AF0F7
:20100000F4FB2E482E4B03604FF4403343608460C4600461446104238361047744770123BF
:20102000036280F824404FF4AC62C2624FF48062026380F83830C46380F8404001F09EF9E9
:2010400000282FD11F4B09934FF440030A931E4B0B9301238DF8303000230D930E930F9329
:2010600009A9164801F00EFFF8B9174B019306230293002303937F220492042205920693B7
:201080000DEB02010D4801F07DFC88B90F4B09934FF0E0730A9309A9084801F0F3FE50B943
:2010A00010B010BD00F04EFCCCE700F04BFCDCE700F048FCEAE700F045FCF1E7C0040020CA
:2010C000000600500000C07D0800908CFFFF170010B59AB004465422002105A81AF085FB1D
:2010E0002368B3F1A04F0CD0884A934245D0884A934200F08580874A934200F0C4801AB0FA
:2011000010BD4FF4004305934FF00053169305A805F0C2F858BB804BDA6C42F40052DA6463
:20112000DB6C03F400530193019B7C487C4B03600523436000238360C360802202614FF4C4
:20114000807242614FF4806282612022C261036202F00CFE70B9714B63659C620022052139
:20116000122002F02FFB122002F062FBC7E700F0E9FBD0E700F0E6FBEDE74FF48033059334
:201180004FF00043179305A805F086F838BB654A136801331360012B24D06348634B036063
:2011A0002523436000238360C360802202614FF4807242614FF4806282612022C26103626C
:2011C00002F0D4FDC8B9584B63659C62002205212F2002F0F7FA2F2002F02AFB8FE700F01C
:2011E000B1FBD4E74C4BDA6C42F48042DA64DB6C03F480430293029BCFE700F0A3FBE2E735
:201200004FF4803305934FF00043179305A805F043F838BB434A136801331360012B24D075
:201220004348444B03602623436000238360C360802202614FF4807242614FF48062826137
:201240002022C261036202F091FDC8B9384B63659C62002205213D2002F0B4FA3D2002F0E6
:20126000E7FA4CE700F06EFBD4E72B4BDA6C42F48042DA64DB6C03F480430393039BCFE769
:2012800000F060FBE2E74FF4803305934FF00043179305A805F000F838BB224A13680133D8
:2012A0001360012B24D02448244B03602723436000238360C360802202614FF4807242616A
:2012C0004FF4806282612022C261036202F04EFDC8B9194B63659C62002205213E2002F0BC
:2012E00071FA3E2002F0A4FA09E700F02BFBD4E7094BDA6C42F48042DA64DB6C03F4804303
:201300000493049BCFE700F01DFBE2E7000400500005005000060050001002402C0500206E
:2013200008000240780300208C0500201C000240EC050020300002404C060020440002403E
:2013400008B51C4A0021012016F074FF1A4B18601A4A0621012017F02DF8194B1860194ABB
:201360004221042017F026F8174B1860174A1221042017F01FF8164B1860164A0021164859
:2013800016F000FF154B1860154A0021154816F0F9FE154B1860154A0021154816F0F2FEEB
:2013A000144B1860144A0021144816F0EBFE144B186008BDF8E50108B8060020B0E501088E
:2013C000AC060020C8E50108B0060020E0E50108B40600202CE6010825500108C006002088
:2013E00050E6010879510108C406002008E60108414A0108BC06002074E601084D54010877
:20140000C806002000B58DB03022002168461AF0ECF91748174B036002F018FAF0B90223E6
:20142000009300228DF804208DF805200292162303930492059201230693079269460C48BB
:2014400002F03EFB68B91E23039310226946084802F036FB40B90DB05DF804FB00F072FAAF
:20146000DDE700F06FFAEEE700F06CFAF3E700BFCC0600200008005000B58DB030220021DC
:2014800068461AF0B2F91148114B036002F0DEF9A8B90223009300228DF804208DF805207A
:2014A00002920392049205920123069307926946064802F005FB28B90DB05DF804FB00F0AF
:2014C00041FAE6E700F03EFAF6E700BFE0060020000C005010B58AB00023059306930793F1
:2014E0000893099303683E4A934204D03D4A934259D00AB010BD04463B4BDA6C42F480320F
:20150000DA64DA6C02F480320192019ADA6C42F00102DA64DB6C03F001030293029B3023F5
:2015200005930323069305A94FF0904002F0B6FD2E482F4B0360062343601023836000239A
:20154000C360802202614FF4007242614FF4806282612022C261036202F008FCE8B9234B34
:20156000A3609C622348244B036007234360102383600023C360802202614FF400724261A7
:201580004FF4806282612022C261036202F0EEFB30B9184BE3609C62ABE700F0D3F9DEE7FE
:2015A00000F0D0F9F5E7104BDA6C42F40032DA64DA6C02F400320392039ADA6C42F0010234
:2015C000DA64DB6C03F001030493049B402305930323069305A94FF0904002F05FFD88E725
:2015E00000080050000C005000100240F406002008040240540700201C04024000B585B0B6
:201600002B4B9A6C42F004029A649A6C02F004020192019A9A6C42F001029A649A6C02F0BB
:2016200001020292029A9A6C42F002029A649B6C03F002030393039B002205210B2002F0A5
:20164000C1F80B2002F0F4F8002205210C2002F0B9F80C2002F0ECF8002205210D2002F048
:20166000B1F80D2002F0E4F8002205210E2002F0A9F80E2002F0DCF8002205210F2002F060
:20168000A1F80F2002F0D4F800220521382002F099F8382002F0CCF800220521392002F000
:2016A00091F8392002F0C4F805B05DF804FB00BF0010024000B589B02022002168461AF077
:2016C00094F814484FF02043036003F58273436000228260C2600261102343618261C26127
:2016E00002624FF4805343628262C262026342638263C2634264026480F84820012302930A
:20170000694605F080FA10B909B05DF804FB00F019F9F9E7B8070020F0B587B0002303937F
:201720001B4B1B680BB107B0F0BD194B01221A60184B1A6D42F001021A651B6D03F0010382
:201740000093009B4FF48063019302260296032504950C24059401A90F4802F09FFC4FF684
:20176000807301930296002703970495059401A90A4802F093FC4CF2B373019302960397B0
:201780000495059401A9064802F088FCCBE700BFB407002000100240001400480010004857
:2017A000000C004810B58CB000240794089409940A940B94254BDA6C42F02002DA64DA6C11
:2017C00002F020020192019ADA6C42F00402DA64DA6C02F004020292029ADA6C42F0010222
:2017E000DA64DA6C02F001020392039ADA6C42F00202DA64DA6C02F002020492049ADA6CCE
:2018000042F01002DA64DA6C02F010020592059ADA6C42F00802DA64DB6C03F00803069328
:20182000069B22464FF403414FF0904002F01AFD4FF4034307930123089309940A9407A933
:201840004FF0904002F02AFC0CB010BD0010024000B595B03822002106A819F0C6FF002075
:201860000190029003900490059003F0A9FE212306934FF48033079301230C9302230D93FA
:2018800003220E9206220F925522109211931293139306A804F0F4F880B90F2301930323FF
:2018A0000293002303930493059304210DEB010004F098FB20B915B05DF804FB72B6FEE707
:2018C00072B6FEE708B500F012FDFFF7C1FFFFF769FFFFF793FEFFF7FFF900F035F8FFF7A3
:2018E00091FDFFF7C9FD00F09DFB00F0D3FBFFF7E1FE00F025FCFFF77BFA00F043F800F0EC
:201900005DF800F077F8FFF7F7FAFFF76BFB00F0CBF900F013F900F04BFC18F0E5FE16F0F8
:2019200003FCFFF70DFD16F011FCFEE708B50268034B9A4200D008BD00F0E8FCFBE700BF55
:20194000002C014072B6FEE708B50C480C4B03600023436040228260082202610122027511
:2019600083614FF4003242628362C36202F080FC00B908BDFFF7E6FFFBE700BF10080020C0
:201980000003014008B50B480B4B0360002343604022826003610122027583614FF40032D9
:2019A00042628362C36202F063FC00B908BDFFF7C9FFFBE74C0800200803014008B50B483A
:2019C0000B4B0360002343604022826003610122027583614FF4003242628362C36202F04D
:2019E00047FC00B908BDFFF7ADFFFBE7880800201003014008B50C480C4B0360002343600D
:201A000040228260082202610122027583614FF4003242628362C36202F02AFC00B908BDBE
:201A2000FFF790FFFBE700BFC40800201403014010B58AB000230593069307930893099318
:201A40000368384A93420AD0374A93421BD0374A93422BD0364A93423CD00AB010BD354BF0
:201A6000DA6C42F00102DA64DB6C03F001030093009B882305930323069305A94FF0904082
:201A800002F00CFBE9E72B4BDA6C42F00202DA64DB6C03F002030193019B052305930323F8
:201AA000069305A9244802F0F9FAD6E7214BDA6C42F00202DA64DB6C03F002030293029B3A
:201AC0004FF4404305930323069305A91A4802F0E5FAC2E7174BDA6C42F00102DA64DA6CFE
:201AE00002F001020392039ADA6C42F00202DA64DB6C03F002030493049B022305930324AC
:201B0000069405A94FF0904002F0C8FA4FF40053059306940023079305A9074802F0BEFA8E
:201B20009BE700BF00030140080301401003014014030140001002400004004808B50B487A
:201B40000B4B036006234360012383600023C36017220261436183618022C261036203F072
:201B6000E5FD00B908BDFFF7EDFEFBE760090020001000A02DE9F0419EB00446002119915F
:201B80001A911B911C911D91542204A819F02DFE22683E4B9A4202D01EB0BDE8F0814FF455
:201BA0008023049304A804F077FB002867D1384B1A6D42F480721A651A6D02F480720092C7
:201BC000009ADA6C42F00402DA64DA6C02F004020192019ADA6C42F00202DA64DA6C02F051
:201BE00002020292029ADA6C42F00802DA64DB6C03F008030393039B1E2319934FF0020842
:201C0000CDF8688000251B9503271C970A261D9619A9204802F042FA4FF480631993CDF893
:201C200068801B951C971D9619A91B4802F036FA08231993CDF868801B951C971D9619A903
:201C4000164802F02BFA1648164B0360282343608560C5608023036145618561C5610562D5
:201C600002F084F870B90E4BE3639C62002205215F2001F0A7FD5F2001F0DAFD8CE7FFF724
:201C800061FE94E7FFF75EFEEDE700BF001000A0001002400008004800040048000C004893
:201CA000000900205800024008B51048104B03604FF482734360002383604FF4E062C26006
:201CC000036143614FF4007282613022C2610362436283620722C2620363436304F0B7FDFF
:201CE00000B908BDFFF72EFEFBE700BFAC090020003C004000B589B000230393049305937C
:201D0000069307930268134B9A4202D009B05DF804FB03F5EA339A6D42F400429A659A6D73
:201D200002F400420192019ADA6C42F00402DA64DB6C03F004030293029B4FF4E053039302
:201D4000022304930623079303A9034802F0A6F9DCE700BF003C00400008004800B583B046
:201D6000104B1A6E42F001021A661A6E02F001020092009A9A6D42F080529A659B6D03F01D
:201D800080530193019B00220F216FF0010001F019FD00F0EBFA022000F0DEFA03B05DF8C0
:201DA00004FB00BF0010024030B589B004461E4B1A6E42F400621A661B6E03F4006301932B
:201DC000019B02A903A804F049FA04F035FA03461648174A026040F2E732C260154AA2FBE4
:201DE00003239B0C013B436000230361836005F03DFB054610B1284609B030BD0B4805F038
:201E000013F905460028F6D1192001F011FD0F2C01D90125EFE700222146192001F0D2FCB2
:201E2000054B1C60E7E700BF00100240100A0020002C014083DE1B4308000020FEE7FEE79F
:201E4000FEE7FEE7FEE7704708B5024802F0C3F808BD00BF2C05002008B5024802F0BBF8E7
:201E600008BD00BF8C05002008B5024802F0B3F808BD00BFEC05002008B5024802F0ABF858
:201E800008BD00BF4C06002008B5024802F0A3F808BD00BF0009002008B5024800F0B6FB63
:201EA00008BD00BF7C03002008B5024802F0DDFB08BD00BF08A5012008B5024805F002F9E5
:201EC00008BD00BF100A002008B5094B1B6893F8A020042A03D0074805F0F4F808BD064A1F
:201EE000D268C3F8A420012283F8A920F3E700BF980B0020AC0A00200000024008B5024847
:201F000000F084FB08BD00BFE803002008B5024802F061F808BD00BFF406002008B50248CC
:201F200002F059F808BD00BF5407002008B5024800F06CFB08BD00BF5404002008B50248FE
:201F400000F064FB08BD00BFC004002008B5024803F066FC08BD00BF600900200120704789
:201F600008B519F0EBFC162303604FF0FF3008BD08B519F0E3FC16230360FEE770B5161E66
:201F800007DD0C468D19AFF3008004F8010BA542F9D1304670BD70B5161E07DD0C468D19B2
:201FA00014F8010BAFF30080A542F9D1304670BD4FF0FF3070474FF400534B600020704756
:201FC000012070470020704708B503460C4A126852B10B4A106803440A4A0B49521A93427C
:201FE00006D8074A136008BD054A08491160F0E719F0A4FC0C2303604FF0FF30F3E700BF50
:020000040800F2
:202000005C0A0020000002200004000068AB0120034AD2F8883043F47003C2F8883070473E
:2020200000ED00E000B589B00023049305930693079301930293039315484FF080420260E1
:202040005422426083600122C2600361836105F00DFA98B94FF48053049304A90C4805F008
:2020600009FB70B9202301930023039301A9084805F0A2FC40B909B05DF804FBFFF762FCBC
:20208000E8E7FFF75FFCEDE7FFF75CFCF3E700BF600A002000B58FB000230A930B930C93EA
:2020A0000D9307930893099300930193029303930493059306932048204A02605422426049
:2020C000836040F2FF12C2600361836105F0CEF910BB4FF480530A930AA9174805F0CAFA6B
:2020E000E8B9154805F0F2F9E0B900230793099307A9114805F060FCB8B90022009240F25F
:20210000FF1301930292049269460B4805F068FA70B90FB05DF804FBFFF714FCD9E7FFF79E
:2021200011FCDEE7FFF70EFCDFE7FFF70BFCE4E7FFF708FCEDE700BFAC0A00200004004098
:2021400000B589B0002304930593069307930193029303931448154A026054224260836035
:202160000122C2600361836105F080F998B94FF48053049304A90C4805F07CFA70B920238E
:2021800001930023039301A9074805F015FC40B909B05DF804FBFFF7D5FBE8E7FFF7D2FB95
:2021A000EDE7FFF7CFFBF3E7F80A00200008004000B585B000230193029303930E480F4ACC
:2021C00002605422426083600122C260836105F04DF958B9202301930023039301A90648A5
:2021E00005F0EAFB28B905B05DF804FBFFF7AAFBF0E7FFF7A7FBF6E7440B00200010004075
:2022000000B585B00368B3F1804F13D01F4A93421ED01F4A93422ED01E4A934215D11E4B1F
:202220009A6D42F010029A659B6D03F010030393039B0AE003F504339A6D42F001029A65BE
:202240009B6D03F001030093009B05B05DF804FB114B9A6D42F002029A659B6D03F00203B0
:202260000193019B002205211D2001F0ABFA1D2001F0DEFAE9E7084B9A6D42F004029A65AC
:202280009B6D03F004030293029BDEE7000400400008004000100040001002400D488546F7
:2022A0000D480E490E4A002302E0D458C4500433C4188C42F9D30B4A0B4C002301E0136005
:2022C0000432A242FBD3FFF7A3FE19F03DFBFFF7F9FAFEE700000220000000205C030020AF
:2022E000D80E02085C03002068AB0120FEE710B5032001F055FA0F20FFF756FD10B10124D0
:20230000204610BD0446FFF729FDF9E7034A1368034909680B441360704700BF900B0020CC
:2023200004000020014B1868704700BF900B002038B50446FFF7F6FF0546B4F1FF3F02D05A
:20234000044B1B681C44FFF7EDFF401BA042FAD338BD00BF04000020034A136B23F00203A4
:2023600003431363704700BF00000140024A136B23F00103136370470000014030B583B083
:2023800000230193002800F00F810446C36D002B00F0CB8023689A6812F0005F05D09A6839
:2023A00022F0204222F03F029A602268936813F0805F19D1936823F0104323F03F0343F022
:2023C00080539360864B1B689B09864AA2FB03239B0901335B000193019B2BB1019B013B95
:2023E0000193019B002BF9D121688B6813F0805F40F0A280E36D43F01003E365236E43F066
:202400000103236601208A68E36D03F0100302F00402134340F0C180E36D23F4817343F079
:202420000203E3658B6813F0010F1BD1B1F1A04F00F0C9806C4B994200F0B88003F540732E
:20244000996803F580739B68684A92680B43134313F0010F06D1664A936823F47C13616839
:202460000B43936094F82420E36BE1680B43A1680B43617F43EA413343EA0243012A5DD0C4
:20248000E26A22B102F47872216B0A4313432168CD68584A2A401A43CA602268136923F0A4
:2024A0004063616B0B43136121688A688B6803F0080302F00402134328D1CA68257F94F8D6
:2024C00038305B0043EA853322F4804222F002021343CB602369002B35D02268136943F4EC
:2024E000803313612268D2F8C03023F47F5323F03F0321690B43C2F8C03094F84030012B89
:2025000030D02268136923F0010313616369012B3AD02268136B23F00F031363E36D23F022
:20252000030343F00103E3653CE0FEF7D1FD0023236684F858302DE7002064E7A26A013AC1
:2025400043EA42439CE72268136923F4803313612268D2F8C03023F47F5323F03F03C2F8C6
:20256000C030CAE721680A69636CA56C2B4322F4FF6222F004021343E26C1343226D134302
:2025800043F001030B61C1E721680A6B236A013B22F00F0213430B63C0E7E36D43F0100305
:2025A000E365012003B030BD0120FBE74FF0A0439A6803F580739B68134313F0010F7FF421
:2025C00051AF0D4A48E74FF0A0439A6803F580739B68134313F0010F7FF444AF064A3BE722
:2025E00000000020632D3E050001005000060050000700500740F0FF00030050704708B5ED
:20260000806AFFF7FBFF08BD70470000F8B5044603681D685E68B3F1A04F5BD09F48A04A28
:20262000A049834218BF0A46976807F01F0715F0020F10D016F0020F0DD0E36D13F0100F4D
:2026400003D1E36D43F40063E365204600F0F5FF236802221A6015F0040F02D016F0040FFE
:2026600005D115F0080F45D016F0080F42D0E36D13F0100F03D1E36D43F40073E365236811
:20268000DA6812F4406F2FD1844A934200F0198102F58062934200F01F81DA6812F4005F31
:2026A00022D11A6812F0080F1ED09A6812F0040F12D15A6822F00C025A60E36D23F48073AE
:2026C000E365E36D13F4805F0ED1E36D43F00103E36509E0724AA7E7E36D43F01003E365BD
:2026E000236E43F001032366204610F0B7FD23680C221A6015F0200F02D016F0200F05D12B
:2027000015F0400F4FD016F0400F4CD0E36D13F0100F03D1E36D43F40053E3652368DA6C9C
:2027200002F4C072D8685D498B4200F0BF8001F580618B4226D0D9687ABB11F0007F05D02A
:2027400001F4005200F44060024326D11A6812F0400F22D011F4001F1FD19A6812F0080F6E
:2027600013D15A6822F060025A60E36D23F48053E365E36D13F4807F0FD1E36D43F0010346
:20278000E3650AE0DFF820C192E0E36D43F01003E365236E43F001032366204600F04AFF0F
:2027A000236860221A6015F0800F02D016F0800F38D115F4807F02D016F4807F3DD115F494
:2027C000007F02D016F4007F43D115F0100F22D016F0100F1FD0E36B7BB1002F47D0226897
:2027E000B2F1A04F41D02D482D4B2E49824218BF0B469B6813F4604F0AD0E36D43F48063E9
:20280000E365236E43F0020323662046FFF7FCFE236810221A6015F4806F02D016F4806FCE
:202820002BD1F8BDE36D43F48033E365204610F02FFD236880221A60BBE7E36D43F40033D0
:20284000E365204610F044FD23684FF480721A60B5E7E36D43F48023E365204600F0ECFE01
:2028600023684FF400721A60AFE70D4BC1E72368DB6813F0010FCBD0BFE7E36D43F480439C
:20288000E365236E43F00803236623684FF480621A60204600F0CFFEC3E700BF0001005091
:2028A0000003005000070050000400504FF0A04CC121F94011F0010F7FF43DAFDCF80C1074
:2028C0003AE74FF0A04140F22122FA4012F0010F7FF4E3AECA68E1E60049F4E70004005081
:2028E00008B50346806AC26D12F0500F30D1C36D43F40073C36503681A6812F0080F14D06B
:20290000DA6812F4406F20D1DB6813F4005F1CD1C36D23F48073C365C36D13F4805F14D1DC
:20292000C36D43F00103C3650FE0DB6813F0020F0BD1C36D23F48073C365C36D13F4805F6E
:2029400003D1C36D43F00103C36510F087FC08BDC26D12F0100F04D1426D526B1846904706
:20296000F5E7FFF751FEF2E708B5806AC36D43F04003C365036E43F004030366FFF744FE9C
:2029800008BD0000F0B583B00022019290F85820012A00F05A820346012280F85820026828
:2029A000906810F0040F09D0DA6D42F02002DA650120002283F8582003B0F0BD48684FEADA
:2029C000901E0EF00C0E303252F80E4000F01F0C0868C0F3846000FA0CF01F2505FA0CFCD4
:2029E00024EA0C0C40EA0C0042F80E001C68A068A26802F0080200F0040002434FD18A6856
:202A0000B2F1004F00F099800D684FEAD55C0CF0040C143454F80C00C5F304550726AE4004
:202A200020EA0600AA40024344F80C201868426922F0004242614A691C68E0680D69042DA7
:202A400000F08F80603454F82570C0F3C10040008240086800F0F840B14E3E4030430243BF
:202A600042F0004244F825200C691868603050F8242022F080728D692A4340F824200D69F7
:202A80001868603050F825200C7F012C14BF0024012422F0007242EA446240F825201A6870
:202AA000906810F0010F12D10868CD689D4CA542D2F8B040C0F312000CBF204324EA0000FB
:202AC000C2F8B000C868974A904200F0E1800A6895490A4200F0AD811968B1F1A04F00F09C
:202AE0006B81924D9248934CA94218BF2046806800F0E075904CA24200F0A9818F4CA24264
:202B000000F0A5818E4CA24240F07A8110F0807F40F09381B1F1A04F00F07081834C844866
:202B2000844AA14218BF1046826822F0E0722A4342F08072826000203BE70868C20D02F083
:202B400004021434A558C0F30450072606FA00F025EA0000A0501868426942F000424261C5
:202B600069E7226E206EC0F384600A68C2F312055DBBC2F38465A84257D004F16405606E1F
:202B8000606EC0F38460C2F3846282425ED01A6802F16804906E906EC0F384600A68C2F3A8
:202BA0008462824263D01A6802F16C04D06ED06EC0F384600A68C2F3846282427FF46FAFDE
:202BC000226822F00042226069E792FAA2F51DB1B5FA85F5A84228D004F16405606E606E4F
:202BE000C0F3846092FAA2F21AB1B2FA82F282422CD01A6802F16804906E906EC0F38460FF
:202C00000A6892FAA2F21AB1B2FA82F282422ED01A6802F16C04D06ED06EC0F384600A680B
:202C200092FAA2F2B2FA82F2C7E7226E22F0004222661A6802F16405506E506EC0F3846049
:202C40000A68C2F31204002C9DD0CBE72A6822F000422A601A6802F16804906E906EC0F3EC
:202C600084600A68C2F31205002D98D0C9E7226822F0004222601A6802F16C04D06ED06E2C
:202C8000C0F384600A68C2F31205002D93D0C7E718680A68C2F31204BCB9940E013404F024
:202CA0001F05092D4ED9940E013404F01F02A40604F0F844012595402C4302EB42021E3ADA
:202CC000120542F00072224346E092FAA2F4002C55D0B4FA84F4013404F01F04092C4ED96D
:202CE00092FAA2F5B5FA85F50135AD0605F0F84592FAA2F6B6FA86F6013606F01F060124A6
:202D0000B4402C4392FAA2F2B2FA82F2013202F01F0202EB42021E3A120542F00072D2E7CD
:202D200000F0FF0300007F4000000880000100500003005000070050000021C31000C0901B
:202D4000000052C7A40604F0F8440122AA40144305EB45052A052243D50D05F0040514302A
:202D60004459C2F304524FF0070C0CFA02FC24EA0C048E6806FA02F222434251A7E692FA3C
:202D8000A2F5B5FA85F50135AD0605F0F84592FAA2F6B6FA86F6013606F01F060124B4409D
:202DA0002C4392FAA2F2B2FA82F2013202F01F0202EB42021205CEE72B4898E62B4900E0DC
:202DC00029498A6822F0E0722A4342F400028A60274A126892092749A1FB02129209013228
:202DE00002EB420292000192019A22B3019A013A0192019A002AF9D10020DAE51A4893E65B
:202E00001D4CA2421BD110F4800F1AD11B4A914219D0154802F5C062B1F1A04F18BF1046A6
:202E2000826822F0E0722A4342F4800282600020BFE50020BDE50020BBE50020B9E5002019
:202E4000B7E50020B5E50020B3E50220B4E510F4000F07D1B1F1A04FB2D0094A9142ADD008
:202E60000020A6E50020A4E5000300500007005000000020632D3E05000084CB00010050C1
:202E80000006005090F85820012A00F0768130B50346012280F858200468A068A26802F019
:202EA000080200F00400024340F006810A68B448824226D04868B0F1A07F00F09E8000F280
:202EC0009580B0F5400F00F09880B0F1807F00F0C580B0F5000F00F0C180C2F3015002F02F
:202EE000010C0CEBCC0C00EB8C000C3454F8205022F0024222F4601225EA020244F8202016
:202F0000C4E04A68B2F1A07F53D01AD8B2F5400F2AD0B2F1807F08D1E26822F0FB4222F46A
:202F2000800242F08072E2602AE0B2F5000F56D1E26822F0FB4222F4800242F40002E26017
:202F40001EE0B2F1C07F41D0B2F1E07F47D1E0688A6802F0F84220F0FB4020F480000243DC
:202F600042F0E072E2600BE0E0688A6802F0F84220F0FB4020F48000024342F44002E2605C
:202F80001868026A22F4E0428C6922430262DA6D22F48032DA651A68802010600A7B012ABF
:202FA000186842680CBF42F0800222F08002426082E0E0688A6802F0F84220F0FB4020F40B
:202FC0008000024342F0A072E260D9E7E26822F0FB4222F4800242F0C072E260D0E7E2680E
:202FE00022F0FB4222F48002E260C9E7B0F1C07F34D0B0F1E07F7FF470AF624882420DD037
:203000008A68C2F3120000BBC2F3846201209040D4F8A4200243C4F8A42037E08A68C2F39D
:20302000120048B9C2F3846201209040D4F8A0200243C4F8A02029E092FAA2F2B2FA82F25B
:2030400002F01F0201209040F0E792FAA2F2B2FA82F202F01F0201209040D9E7C2F3015C7F
:2030600002F0010000EBC0000CEB800C0C3454F82C0022F0024525F4601520EA050022F06F
:203080007E4222F4F002024344F82C2008683D4A904247D0DA6D22F48022DA651A684FF4B8
:2030A000007010600A7B012A186842680CBF42F4007222F4007242600A683148824244D0F6
:2030C0001C68E06800F0180018284ED0E068C0F3C100C0F10200400000F01E000D6925FA6C
:2030E00000FCE06800F01800182842D0E068C0F3C100C0F10200400000F01E00496921FAA8
:2031000000FE920C02F00C0218682030815801F0F02141EA0E0141EA0C418150002083F84A
:20312000580030BDDA6D22F40032DA651A684FF4807010600A7B012A186842680CBF42F47C
:20314000807222F480724260B6E71C68E068C0F3C10040000D6905FA00FCE068C0F3C10089
:203160004000496901FA00FECBE708694FEA800CB7E749694FEA810EC3E70220704700BF22
:203180000000C07DFFFF170070B50446036898689A6802F0080200F00400024379D0DA6841
:2031A00012F0007F04D0A08B40F20112904228D0022970D023689A6812F0040F0BD09A6896
:2031C00012F0020F07D19A6822F0004222F03F0242F010029A6001292FD023689A6812F065
:2031E000080F2ED1022939D0032908BF0C2524D1FFF798F8064623689B681D4234D1002088
:2032000048E01A6812F0400F10D1264A196811F0400F0BD1013AF9D1E36D43F01003E365D2
:20322000236E43F001032366012033E040221A6023689A6812F0040F01D10425D8E70121AF
:20324000BDE79A6812F0020FCCD19A6822F0004222F03F0242F020029A60C3E70825C7E79C
:2032600023689B682B4212D0FFF75CF8801B0528F6D923689B682B42F2D0E36D43F010033D
:20328000E365236E43F001032366012002E0002000E0002070BD23689A6812F0080FD0D1FE
:2032A0000825A5E7000040A338B503689A6812F0010F47D104469968234A114209D0C36DDA
:2032C00043F01003C365036E43F001030366012039E09A6822F0004222F03F0242F0010257
:2032E0009A60FFF71FF8054623681A6812F0010F06D0002027E023681A6812F0010F1FD151
:203300009A6812F0010F07D19A6822F0004222F03F0242F001029A60FFF704F8431B022B6C
:20332000E9D923681B6813F0010FE4D1E36D43F01003E365236E43F001032366012002E0C3
:20334000002000E0002038BD3F000080F8B504460E4617460068B0F1A04F21D03D4A3E4DF6
:203360003E4B904218BF1D46AD68816811F0040F68D194F85820012A66D005F01F050123CB
:2033800084F85830364B98420CD040F22123EB4013F0010F06D1002384F85830012052E0ED
:2033A0002D4DE1E72046FFF77FFF002846D1E36D23F4706323F0010343F48073E365236864
:2033C000244A934242D002F5806293423ED0E36D23F48013E365E36D13F4805F1ABF236EFA
:2033E00023F0060300232366636D1E4ADA62636D1D4A1A63636D1D4A5A6323681C221A60A6
:20340000002384F858302268536843F0100353602268D36843F00103D36021683B46324696
:203420004031606D00F018FD2268936823F0004323F03F0343F00403936004E0002384F869
:20344000583000E00220F8BD0220FCE7002DBED0C1E700BF0001005000030050000700500B
:2034600000060050E1280008FF2500086929000838B5036899689A6812F0010F43D0044655
:2034800011F0020F41D19A6802F00D02012A09D0C36D43F01003C365036E43F00103036652
:2034A000012031E09A6822F0004222F03F0242F002029A60036803221A60FEF733FF054685
:2034C00023689B6813F0010F08BF002005D11BE023689B6813F0010F13D0FEF723FF401B9D
:2034E0000228F5D923689B6813F0010FF0D0E36D43F01003E365236E43F001032366012023
:2035000002E0002000E0002038BD0020FCE738B590F85830012B3CD00446012380F858300E
:203520000321FFF731FE054670BB2268D36823F00103D360606D90F82530DBB2022B12D077
:203540002268536823F0100353602046FFF790FF0546C8B9E36D23F4885323F0010343F00A
:203560000103E36510E000F0C1FC05460028E7D0E36D43F04003E3652268536823F01003BF
:2035800053602046FFF774FF002384F85830284638BD0225FBE7000030B583B00023019347
:2035A00090F85830012B41D004460D46012380F85830FFF75DFF80BBE36D23F4885323F01B
:2035C000020343F00203E3652268936823F0404323F03F0305F080452B4343F00043936065
:2035E000226813499368002B06DBE36D23F0030343F00103E36514E0019B01330193019B02
:203600008B42EFD9E36D23F0120343F01003E365002384F85830012006E0E36D43F010034B
:20362000E365002384F8583003B030BD0220FBE701DE0400704770477047704790F85820B8
:20364000012A55D030B49CB00346012280F858200022189219920268B2F1A04F4AD04A486F
:2036600082425BD0DA6D42F02002DA65002283F8582001204DE04FF0A042946802F5807218
:203680009268224312F0010F71D000203EE0826822F4604282601A68B2F1A04F10D03B493E
:2036A0008A420DD0384A946802F5807292683849896822430A4382F0010202F001020AE088
:2036C0004FF0A042916802F5807292680A4382F0010202F001020AB9002017E0826822F45C
:2036E000716222F00F02826000200FE000200DE002207047254880689268024312F0040F54
:203700000AD0DA6D42F02002DA650120002283F858201CB030BC70471E4807E01E488068B5
:203720009268024312F0040FEBD11C480A68002AADD0846893F838C04A6842EA4C3224F419
:20374000604C42EA0C0282601A68B2F1A04F92D00E4CA2428FD00C4A956802F58072926858
:203760000B4CA4682A43224312F0010FBED184680A6889680A4324F4716121F00F010A437F
:2037800082600020C2E700BF000400500001005000060050000300500005005000070050C5
:2037A0000749CA68030203F4E06322F4E0621204120C134343F0BF6343F40033CB607047C5
:2037C00000ED00E000B5184BDB68C3F30223C3F1070CBCF1040F28BF4FF0040C03F1040E23
:2037E000BEF1060F8CBF033B00234FF0FF3E0EFA0CFC21EA0C0199400EFA03FE22EA0E02B7
:203800001143002809DB0901C9B200F1604000F5614080F800135DF804FB00F00F000901B4
:20382000C9B2024B1954F6E700ED00E014ED00E0002807DB410900F01F0001238340024A32
:2038400042F82130704700BF00E100E070B110B50446037933B10223237100202061012398
:20386000237110BD4371FDF735FEF4E7012070474379012B2ED070B504460D4601206071BF
:20388000022323712268116805F0100600FA06F30B431360FEF74CFD7DB92268136803F041
:2038A0003E03022B04D0012323710020607170BD536843F001035360F5E721680A6802F47E
:2038C00078120223B3409A42EDD14B6843F002034B60E8E70220704738B504460268136852
:2038E00001F01001012505FA01F123EA010313602846FEF71DFD2571002038BD70B5044694
:2039000004986679012E6AD00D4611460122627102222271002D2FD1A268324ED662A26873
:20392000314E1663A268314E56632668326842F480523260042819D008281AD098B12A46A3
:203940002668306840F400503060A06800F084FA064600236371002E35D0236943F004037B
:203960002361304670BD22680832E9E722680C32E6E722681032E3E7E2681D4ED662E2682A
:203980001C4E1663E2681C4E56632668326842F080523260042810D0082811D050B10022D9
:2039A0002668306840F000503060E06800F054FA0646CEE722681432F2E722681832EFE7F7
:2039C00022681C32ECE723681A6805F01005012000FA05F515431D60FEF7AAFCC1E70226D0
:2039E000BFE700BF893A00089B3A0008A73A0008A53C0008B53C0008C13C000838B50446B3
:203A00000D460068026801F010034FF48051994022EA0102026021680A68012000FA03F313
:203A200022EA03030B60FEF783FC5DB9A06800F05DFA2268136823F4005313600123237196
:203A4000002038BDE06800F051FA2268136823F000531360F2E710B483B0002401940068FF
:203A6000C46B019051B9019908310A440192019A1360002003B05DF8044B704701991431AD
:203A80000A440192F3E7704710B5846A2046FFF7FAFF0123237110BD704708B5806AFFF7D3
:203AA000FBFF08BD704710B5846A236943F0040323612046FFF7F6FF0123237110BD0000BD
:203AC0004379012B00F0E8802DE9F04104460E46154601234371022303718B68042B71D092
:203AE000F369012B00F0B8802368DB6B05F010050722AA40D243B169012900F0BA8002297A
:203B000000F0B9807169B1FA81F149094FF40070A84023EA000313404FF48072AA4023EA09
:203B200002033279012A14BF00220122B7687069074347EA02277279012A14BF00220122C8
:203B400047EA42270F4323F440483368022B00F0948048EA0308AF4047EA08072368DF63D5
:203B600021680B684FF48042AA4023EA02030B6021680A6840F6FE73AB4022EA0302F368E4
:203B8000AB4013430B6021680B68C022AA4023EA02030B60F368C3F383012068026E33690B
:203BA0009B0103F470630B43AB4040F60F71A94022EA010213430366012323710020607150
:203BC000BDE8F081FEF7AEFB07467DB123685B6B002B3ADAFEF7A6FBC01B0128F6D9236931
:203BE00043F00803236103202071E9E723685B6B13F4004F0BD0FEF795FBC01B0128F5D9A6
:203C0000236943F00803236103202071D8E70120FEF78EFB2368726A1A642068836C05F0F3
:203C2000100240F2FF31914023EA0103B16A91400B4383642068C36CFF21914023EA010354
:203C4000F16A91400B43C3644AE70120FEF770FB2368726A5A64E0E721688A6B05F01000A2
:203C60001F23834022EA0302336A834013438B633AE700214AE7012148E702F0D7FA074BB1
:203C8000984202D948F4004865E7054B98427FF662AF48F480485EE70220704700688909D3
:203CA00000B4C40410B5846A204613F04DF90123237110BD08B5806A13F03EF908BD704744
:203CC00010B5846A236943F0040323612046FFF7F6FF0123237110BD30B4C46C056D6560C6
:203CE000446D14B1846DC56D6560446C04F01F0C012404FA0CF4056C6C600468636083681D
:203D0000102B05D0036899600368DA6030BC704703689A600368D960F8E7000010B40368D0
:203D20000D4C0E4A0E49A34288BF0A46416C21F003010A4482640B4AC264DBB2083B0A4A6A
:203D4000A2FB0323C3F30413012202FA03F303655DF8044B704700BF0704024000080240A5
:203D60002008024080080240CDCCCCCC002860D010B504460268304B9A423FD82F4B1344CE
:203D80002F49A1FB03131B099B002E4963642164022384F82530116821F4FF4121F0700131
:203DA000A368E06803432069034360690343A0690343E0690343206A03430B4313602046B7
:203DC000FFF7ACFFA368B3F5804F04BF00236360A36C22791A60E36C226D5A6063685A1E18
:203DE000032A14D900236365A365E3650020E063012384F8253084F8240010BD124B1344F5
:203E00000F49A1FB03131B099B001049BEE7DBB20F4A1A44920062650E49A165013B012183
:203E200001FA03F3E36500231360A36DE26D5A60DCE70120704700BF07040240F8FFFDBF40
:203E4000CDCCCCCC00000240F8FBFDBF000402403F8200104009024038B5044690F82400BB
:203E6000012841D0012084F8240094F82500C0B2012804D0002384F82430022038BD0220FB
:203E800084F825000020E0632568286820F0010028602046FFF720FF236BD3B122681368D6
:203EA00043F00E031360A36C1A6812F4803F03D01A6842F480721A60636D1BB11A6842F4AA
:203EC00080721A602268136843F0010313600020D4E72268136823F0040313602268136855
:203EE00043F00A031360DEE70220C7E7034690F82520D2B2022A09D00422C263012001224C
:203F000083F82520002283F82420704701680A6822F00E020A60816C0A6822F480720A6011
:203F200001680A6822F001020A60006C5A6C02F01F0101228A404260DA6C196D51605A6D10
:203F400042B1116821F4807111609A6DD96D51600020D4E70020D2E708B590F82530DBB2A5
:203F6000022B09D00423C363012380F82530002280F82420184608BD0268136823F00E03F3
:203F800013600268136823F001031360826C136823F480731360016C436C03F01F02012305
:203FA00093404B60C36C026D5A60436D33B11A6822F480721A60836DC26D5A60012380F81E
:203FC0002530002380F82430836B13B198470020D1E70020CFE738B5036C19680468256888
:203FE000436C03F01F0304229A400A4215D015F0040F12D0236813F0200F03D1236823F0A3
:020000040800F2
:2040000004032360016C436C03F01F02042393404B60036B03B1984738BD02229A400A4201
:204020001CD015F0020F19D0236813F0200F06D1236823F00A032360012380F82530016C75
:20404000436C03F01F02022393404B60002380F82430C36A002BDFD09847DDE7082202FA3B
:2040600003F30B42D8D015F0080FD5D0236823F00E032360016C436C03F01F03012202FA12
:2040800003F34B60C26380F82520002380F82430436B002BC0D09847BEE700000B68002B23
:2040A00000F0D6802DE9F04F83B04FF0000C624601254FF0030E674CDFF8A48147E0836808
:2040C0000EFA0CFA23EA0A0ACB6803FA0CF343EA0A038360436823EA07074B68C3F3001323
:2040E00093403B4343603DE0002707FA0BF747EA0A079F60A3686FEA09074E6816F4801F71
:204100000CBF3B4049EA0303A360E3684E6816F4001F0CBF3B4049EA0303E36063684E68B0
:2041200016F4003F0CBF3B4049EA0303636023684E6816F4803F0CBF1F4049EA03072760FC
:2041400001320B680CF1020C33FA02F77DD005FA02F717EA0309F3D04B6803F00303013B8B
:20416000012BACD94B6803F00303032B22D0C7680EFA0CF327EA03078B6803FA0CF33B4304
:20418000C3604B6803F00303022B13D1D70800EB8707D7F820A002F0070B4FEA8B0B0F2353
:2041A00003FA0BF32AEA030A0B6903FA0BF343EA0A033B6207680EFA0CF327EA03074B6859
:2041C00003F0030303FA0CF33B4303604B6813F4403FB5D0204E336E43F001033366336ECB
:2041E00003F001030193019B22F0030303F1804303F58033D3F808A002F0030B4FEA8B0BDC
:204200000F2707FA0BF72AEA070AB0F1904F3FF46BAF404511D0114EB04210D006F58066FB
:20422000B0420ED006F58066B0420CD006F58066B0420CBF0527062757E72F4655E70227F0
:2042400053E7774651E704274FE703B0BDE8F08F704700BF0004014000100240000800489A
:20426000000400480AB181617047816270470000002860D010B582B0044690F83A30DBB2EC
:20428000052B5AD090F83A30DBB2022B57D02E4B1A6E42F001021A661B6E03F00103019327
:2042A000019B90F83A300BB980F839302046FDF7BFFBA36823F02003402B2268136823F0F3
:2042C0001003E16A43EA01031360216808686368A2681CBF1343E268134322691343626A90
:2042E0001343A26A1343226B43EAC243626B43EA0263164A02401343227D012A14BF002231
:20430000012243EA02230B6022689369002B09DB9169A369E0690343206A034321F03F0172
:204320000B43936194F83A3003F0FF0053B9012384F83A3004E001207047012000E001205F
:2043400002B010BD0020FBE700100240113E00E0A8B190F83A30DBB2052B12D090F83A307F
:20436000DBB2012B01D00120704701680B6843F001030B60042380F83A300020704701205C
:20438000704701207047D0B190F83A30DBB2052B17D090F83A30DBB2022B14D090F83A30F5
:2043A000DBB2042B01D00120704701680B6823F001030B60012380F83A300020704701203C
:2043C00070470120704701207047002800F0B2802DE9F843044690F83A30DBB2052B00F0F2
:2043E000AB8090F83A30DBB2012B02D00120BDE8F8830268136843F002031360026813685F
:2044000043F0100313600268136843F4006313600268136843F4405313600268136843F0B7
:20442000010313600427082610254FF002082268136823F0F85343EA056313604046FDF749
:2044400077FF23681A6812F0804F14BFAD19AD1B7608013FEBD11A6822F0F85242EA0562BC
:204460001A600220FDF764FF23681A6812F0804F06D001351A6822F0F85242EA05621A6074
:204480002268136823F4405343F4805313604FF00408082710264FF002092268136823F4DA
:2044A000780343EAC64313604846FDF741FF23681A6812F0804F14BFF619F61B7F08B8F115
:2044C0000108EAD11A6822F4780242EAC6421A600220FDF72DFF23681A6812F0804F06D062
:2044E00001361A6822F4780242EAC6421A602268136823F4006313602268136823F00103B7
:2045000013602268136823F002031360656326631023E3622268136823F4780343EAC64302
:2045200013602268136823F0F85343EA0563136000205CE701207047012058E7002869D0A1
:2045400030B587B0044690F8A932002B58D0032384F8A932206803F059FB606898B30023BD
:204560004FF0010C194603EB830204EBC20282F829C082F82830D38682F82B109163D163FF
:2045800003EB830204EBC20211640133DBB28342E9D30023194603EB830204EBC20282F81C
:2045A000691182F8683182F86B11C2F87811C2F87C1103EB830204EBC202C2F88011013349
:2045C000DBB28342E7D3A4465CF8105BEE46BCE80F00AEE80F00DCF80030CEF80030231D60
:2045E0000ECB284603F01CFB002384F82430012384F8A932E369012B07D0002007B030BDE9
:2046000080F8A83216F08CF9A1E7204600F0C1FF0020F3E70120704790F8A832012B0ED0E1
:2046200010B50446012380F8A832006803F0E5FA206803F021FE002084F8A80210BD0220EC
:20464000704790F8A832012B0DD010B50446012380F8A83280F82410006803F007FE002087
:2046600084F8A80210BD022070472DE9F0470546006803F00CFE10F4004F2AD110F4806F30
:2046800040F0BC8410F4804F40F0C98410F4005F40F0D08410F4805F40F0D68410F4006F93
:2046A00040F0FC8410F0800F40F0158510F4007F40F0418510F4807F00F0BA842A68B2F80B
:2046C000443023F480731B041B0CA2F8443000F0AFBC2868B0F8443013F4004F00F0A8848F
:2046E00048F2800700264CF28008C3E003889BB223F4E14323F070036FEA43436FEA534303
:204700009BB203802B68B3F8502095F8281003EBC10313FA82F3B3F80234C3F309036B64B0
:20472000EA6B1A44EA633146284616F03DF995F82430002B00F097802B6C002B40F0938040
:2047400095F824302A6843F08003A2F84C3085F8246088E0B0F8503095F8682100EBC202C4
:2047600012FA83F3B3F80634C3F30903C5F88431B5F86E2105F52C7104F0EFF82A681388C3
:2047800023F070031B051B0D43F080031380284616F0F6F867E068B9995A21F4F8410904EA
:2047A000090C9952995A6FEA41416FEA514189B29952B7E0410810F0010F18BF0131890296
:2047C00089B29952AEE030F824301FFA83F913F4004F40F0B38019F0800F44D02A6832F8F3
:2047E00024309BB223F4E14323F070036FEA43436FEA53439BB222F8243004EB840A05EB61
:20480000CA0A9AF82B30022B00F02082CAF840609AF8343013B319F0400F00F0EB819AF8B4
:204820002930002B40F0D7812B68B3F850209AF8281003F2024313FA82F232F8313023F497
:20484000F8431B041B0C22F8313032F831306FEA43436FEA53439BB222F831309AF8281071
:20486000284616F0A1F82868B0F8443013F4004F00F0DE83B0F84440A3B214F00F04A2D1CD
:2048800013F0100F3FF432AF03889AB213F4006F7FF460AF12F4004FE5D0038823F07003F8
:2048A0001B051B0D43F0800303802868B0F8503095F8682100EBC20212FA83F3B3F8063493
:2048C000C3F30903C5F884318BB1D5F87C1171B1B5F86E2104F041F8D5F87C31D5F8842197
:2048E0001344C5F87C313146284616F051F82B681A8812F4006FB6D1B3F8502092B203F23E
:204900000643D5F878013E287FF645AF410910F01F0F08BF01F1FF316FEAC1616FEA514172
:2049200089B299522A6813889BB223F4804323F0700383F440533B43138094E730F8243065
:2049400023F070031B051B0D43F0800320F8243004EB840305EBC30393F87431002B43D1CC
:204960002868B0F8503004EB840205EBC20292F8682100EBC20212FA83F3B3F806A4CAF300
:20498000090ABAF1000F23D104EB840305EBC303D3F884215244C3F88421D3F87C215244C6
:2049A000C3F87C21D3F8803143B104EB840305EBC303D3F878319A4580F0038104EB840346
:2049C00005EBC30393F86811284615F0E1FF02E704EB840105EBC1015346B1F86E21D1F821
:2049E0007C1103F0BAFFCFE704EB840305EBC30393F86B31022B35D004EB840205EBC2021A
:204A000092F86801296831F820309BB223F4E04323F0700343F4004343F0C00321F82030B3
:204A2000286892F8683130F8232012F4804F00F0AE80B0F8502000EBC30313FA82F3B3F86F
:204A400002A4CAF3090ABAF1000F9DD004EB840105EBC1015346B1F87021D1F87C1103F077
:204A60007CFF91E719F4804F48D02A68B2F8500004EB840305EBC30393F8681102EBC10CD9
:204A80001CFA80F0B0F802A4CAF3090AD3F880315345C0F01584A3EB0A0304EB840005EB17
:204AA000C000C0F88031002B00F0108419F0400F13D004EB840305EBC30393F868112A6821
:204AC00032F821309BB223F4E04323F0700343F4004343F0C00322F82130BAF1000F3FF486
:204AE00053AF04EB840105EBC1015346B1F87021D1F87C11286803F030FF45E72A68B2F84B
:204B0000500004EB840305EBC30393F8681102EBC10C1CFA80F0B0F806A4CAF3090AD3F8E8
:204B200080315345C0F0E083A3EB0A0304EB840005EBC000C0F88031002B00F0DB8319F070
:204B4000400F13D104EB840305EBC30393F868112A6832F821309BB223F4E04323F07003D8
:204B600043F4004343F0C00322F82130BAF1000F3FF40AAF04EB840105EBC1015346B1F84C
:204B80007221D1F87C11286803F0E7FEFCE6B0F8502000EBC30313FA82F3B3F806A4CAF385
:204BA000090ABAF1000F3FF4EFAE04EB840105EBC1015346B1F87221D1F87C1103F0CDFE49
:204BC000E2E604EB840105EBC10101F5B471286803F077FBFFE5012B7FF440AE2B68B3F828
:204BE00050209AF8281003F2024313FA82F323F8316033E62B689AF82920CAB9B3F85020EE
:204C00009AF8281003F2064313FA82F232F8313023F4F8431B041B0C22F8313032F83130E2
:204C20006FEA43436FEA53439BB222F8313015E6012A7FF413AEB3F850209AF8281003F2AA
:204C4000064313FA82F323F8316007E619F4807F30D12868B0F850309AF8281004EB8402EC
:204C600005EBC202126C00EBC10C1CFA83F3B3F80234C3F309039A4240F26A82D21A04EB46
:204C8000840C05EBCC0CCCF84020002A00F0658204EB840205EBC202D16B1944D163516CE4
:204CA0000B445364013404EB840405EBC40103F008FBD8E519F0400F00F0D8802968B1F800
:204CC00050209AF828004FEAC00E01F2024C04EB840305EBC3031B6C1EFA82F23CF80220CD
:204CE000C2F30902934240F23D829B1A04EB840E05EBCE0ECEF84030002B00F0388219F414
:204D0000804F0AD031F820309BB223F4E04323F0700348EA030321F8203004EB840305EB5D
:204D2000C30393F84C30012B27D09AF828102A6832F821309BB223F4E04323F0400383F05C
:204D400030033B4322F821308DE5012B40F04882B1F850301CFA83F323F8306021E2012A11
:204D600040F03E82B3F8502003F2064313FA82F39AF8282023F8326032E204EB840305EB67
:204D8000C303D96B1144D963596C11445964996C9B6B994222D304EB840205EBC202C91ABA
:204DA00091649AF82920002A45D12A68B2F8501002F2024212FA81F19AF828003E2B1DD978
:204DC0005A0913F01F0F08BF02F1FF326FEAC2626FEA524292B221F830202EE031B92823FA
:204DE00003FB045383F84C601346DAE7282303FB045383F84C609E640B46D2E78BB931F8DD
:204E0000302022F4F8421204120C21F8302031F830206FEA42426FEA524292B221F8302065
:204E20000BE05A0813F0010F18BF0132920292B221F8302001E0012A0BD004EB840205EB7B
:204E4000C20211469BB2128EC96B286803F023FA6BE72A68B2F8501002F2024212FA81F2D1
:204E60009AF8281098B222F83100E6E72968B1F850309AF828C04FEACC0E04EB840205EB5A
:204E8000C202106C1EFA83F30B44B3F80624C2F309029042C0F0BC81801A04EB840305EBA1
:204EA000C3031864002800F0B88119F4804F0AD131F82C309BB223F4E04323F0700348EAE4
:204EC000030321F82C3004EB840305EBC30393F84C30012B7FF429AF04EB840305EBC30381
:204EE000D96B1144D963596C11445964996C9B6B99423CD304EB840205EBC202C91A916410
:204F00002A689AF8291000295ED1B2F850009AF8281002F2064212FA80F03E2B37D95A0984
:204F200013F01F0F08BF02F1FF326FEAC2626FEA524292B220F8312048E0012B40F0A88191
:204F4000B1F8503001F2024111FA83F323F83C607FE1012A40F09C81B3F8502003F2064389
:204F600013FA82F39AF8282023F8326090E131B9282303FB045383F84C601346C0E72823BB
:204F800003FB04539E6483F84C600B46B8E78BB930F8312022F4F8421204120C20F83120F9
:204FA00030F831206FEA42426FEA524292B220F831200BE05A0813F0010F18BF0132920203
:204FC00092B220F8312001E001290BD004EB840205EBC20211469BB2528EC96B286803F0DA
:204FE0005AF9A2E6B2F850109AF8280002F2064212FA81F299B222F83010E7E72A68B2F8A8
:20500000443023F480631B041B0CA2F84430284615F0DBFC00212846FFF713FB08E02A6877
:20502000B2F8443023F480431B041B0CA2F84430BDE8F0872A68B2F8443023F400531B04CF
:205040001B0CA2F84430F3E72A68B2F8403023F004031B041B0CA2F840302A68B2F840307F
:2050600023F008031B041B0CA2F8403095F8E032012B0CD0284615F0CBFC2A68B2F8443031
:2050800023F480531B041B0CA2F84430D0E7002185F8E012284615F073FDEBE72A68B2F89A
:2050A00040309BB243F00803A2F840302A68B2F8443023F400631B041B0CA2F844302A68DB
:2050C000B2F840309BB243F00403A2F84030284615F08EFCACE72A68B2F8443023F080034F
:2050E0001B041B0CA2F8443095F8E032FBB92A68B2F840309BB243F00403A2F840302A683A
:20510000B2F840309BB243F00803A2F84030012185F8E0122B68B3F85430C3F38D0303F054
:205120003C03C5F8E432284615F02AFD80E7284615F05EFC7CE72A68B2F8443023F40073F2
:205140001B041B0CA2F84430284615F038FC6FE704EB840405EBC4042664284615F024FCB2
:20516000FFF781BB04EB840405EBC4031E649AF82930002B7FF4E9ADB1F850201CFA82F28B
:2051800032F8303023F4F8431B041B0C22F8303032F830306FEA43436FEA53439BB222F8B4
:2051A00030302B689AF82920002A7FF4D8ADB3F850209AF8281003F2064313FA82F232F831
:2051C000313023F4F8431B041B0C22F8313032F831306FEA43436FEA53439BB222F831303A
:2051E0009AF82810284615F0DFFB19F4804F3FF49CAD9AF828102A6832F821309BB223F405
:20520000E04323F0700348EA030322F821308CE504EB840405EBC4031E649AF82930002B0B
:205220007FF48BAEB1F8502001F2024111FA82F232F83C3023F4F8431B041B0C22F83C3040
:2052400032F83C306FEA43436FEA53439BB222F83C302B689AF82920002A7FF47AAEB3F839
:2052600050209AF8281003F2064313FA82F232F8313023F4F8431B041B0C22F8313032F86D
:2052800031306FEA43436FEA53439BB222F831309AF82810284615F087FB19F4804F7FF409
:2052A00044AD9AF828102A6832F821309BB223F4E04323F0700348EA030322F8213034E55D
:2052C00004EB840305EBC303C3F8806132F821309BB223F4804323F0700383F400533B4396
:2052E00022F82130FFF7E2BB04EB840305EBC303C3F8806132F821309BB223F4804323F033
:20530000700383F400533B4322F8213017E410B504468C4611F0800F28D101F0070000EB1F
:20532000800104EBC10E0EF5B47170464FF0000E80F869E10CF0070C81F800C00A61CB7053
:205340004A780AB1A1F80EC0022B04BF00230B7194F8A832012B15D0012384F8A832206861
:2053600002F06FFC002084F8A80210BD01F00700013000EB800104EBC1014FF0010E81F8B0
:2053800001E0D7E70220F0E710B504460B4611F0800F1FD101F0070202EB820100EBC1017E
:2053A00001F5B47102EB820200EBC202002082F8690103F007030B7094F8A832012B13D0C1
:2053C000012384F8A832206802F0F1FD002084F8A80210BD01F00702013202EB820100EB50
:2053E000C10101204870E4E70220F2E710B501F0070404EB840100EBC10101F5B47104EB60
:20540000840C00EBCC0CCCF87C21CCF880310023CCF884318CF869318CF86841006802F022
:2054200050FF002010BD01F0070101EB810100EBC100D0F88401704710B501F00704611CDB
:2054400001EB810100EBC10104EB840C00EBCC0CCCF83C20CCF8403001228CF84C20CCF8C4
:2054600048300023CCF844308CF829208CF82840006802F026FF002010BD0B4601F00702E9
:2054800041688A422AD810B5044613F0800F1DD103EB830100EBC10101F5B47103EB830358
:2054A00000EBC303002083F8690101238B700A7094F8A832012B13D0012384F8A832206826
:2054C00002F05EFE002084F8A80210BD531C03EB830100EBC10101204870E6E7012070475F
:2054E0000220F2E70B4601F00F014268914230D810B5044613F0800F21D103F0070202EB5E
:20550000820100EBC10101F5B47102EB820200EBC202002082F8690100228A7003F0070303
:205520000B7094F8A832012B15D0012384F8A832206802F04AFE002084F8A80210BD03F037
:205540000702013202EB820100EBC10101204870E2E7012070470220F0E711F0800F0BD014
:2055600001F00701013101EB810100EBC10052B90273C3800020704701EB810100EBC10032
:2055800000F5B470F3E70122027303811B0C4381F0E7034602680121C0F8E812002083F818
:2055A000E002B2F854309BB20B43A2F85430B2F854309BB243F00203A2F85430704700009A
:2055C00000283AD1404B1B6803F4C063B3F5806F08D03D4AD2F8803023F48073C2F880308C
:2055E00000207047384AD2F8803023F48073C2F88030136823F4C06343F400731360334B14
:205600001B68322101FB03F33149A1FB03139B0C0133526912F4806F07D02B49013B4A69D1
:2056200012F4806F01D0002BF8D1274B5B6913F4806F0CBF002003207047B0F5007F08D0C3
:20564000214A136823F4C06343F480631360002070471D4B1B6803F4C063B3F5806F08D052
:20566000194AD2F8803043F48073C2F8803000207047154AD2F8803043F48073C2F8803075
:20568000136823F4C06343F4007313600F4B1B68322101FB03F30E49A1FB03139B0C013332
:2056A000526912F4806F07D00749013B4A6912F4806F01D0002BF8D1034B5B6913F4806F62
:2056C0000CBF002003207047007000400000002083DE1B432DE9F84380460E4615469946D1
:2056E000089FD8F800209468344214BF4FF0010C4FF0000CAC4515D0B7F1FF3FF3D0FCF7C5
:2057000011FEA0EB0900B84201D8002FE9D1042388F84130D8F8443043F00103C8F8443063
:20572000012000E00020BDE8F883000070B582B00446FCF7F7FD002C4AD0064694F8413011
:20574000002B3CD025682A68A168013922F4706242EA01222A60A36C009333460022202171
:205760002046FFF7B7FF28BB21680A68E368E5692B43256A2B43656843EA056322F07F4200
:2057800022F0D00213430B6021684D686369A2691343226943EA02430E4A2A4013434B6039
:2057A0002268136843F00103136000236364012384F84130002384F8403002B070BD84F8D5
:2057C00040302046FCF7D6F941F28833A364B9E70120F2E7FEF8E0FF704708B5806A00234C
:2057E0008363C36290F84130DBB2082B0DD103680222DA600268136843F400331360026812
:20580000136843F00203136008BD012380F84130FFF7E2FFF8E77047704770477047704747
:2058200010B5044603689A68196812F0040F4CD011F4802F49D090F84120D2B2122A0DD0E7
:2058400090F84120D2B2222A26D02046FFF7E5FF10BD136823F480231360F6E79A6812F003
:20586000040F18BF1A46F0D0E16A0029F1D0626A127883F82020626A01326262E26A013A8E
:20588000E2622268916811F0040FEDD1DDE7136823F480231360D8E79A6812F0040F18BF56
:2058A0001A46D2D0A16B0029F1D0226B93F820101170226B01322263A26B013AA26322680B
:2058C000916811F0040FEDD1BFE712F0020F79D011F4003F76D00222DA602268136823F4F7
:2058E000E023136094F84130DBB2122B1DD094F84130DBB2222B2ED094F84130DBB2022BF2
:2059000055D094F84130DBB2082BA1D12268536923F040635361012384F84130636C002B78
:205920004CD12046FFF777FF92E723681A6812F0040F09D01A6822F004021A60E36B1A6820
:20594000136823F001031360012384F8413020460DF078FC7CE721680B6813F0040F15D1FF
:205960008B6813F4F85F1BD0A36BCBB1236B91F820201A70236B01332363A36B013BA363E8
:2059800023689B6813F4F85FEED109E00B6823F004030B60E36B1A68136823F001031360A6
:2059A000012384F8413020460DF052FC50E7012384F841302046FFF72FFF49E72046FFF7C7
:2059C0000BFF45E712F0080F14D011F4002F11D00822DA6023681A6812F4800F06D01A6821
:2059E00022F410221A60012384F841302046FFF715FF2DE712F0010F31D011F4803F2ED07B
:205A00000122DA602268136823F470231360636C43F00203636423681A6812F0040F17D030
:205A20001A6822F004021A60E36B144A9A63E06BFEF792FA00283FF40BAF636C43F00403BF
:205A40006364012384F841302046FFF7C5FEFFE6012384F841302046FFF7BEFEF8E612F061
:205A6000100F3FF4F5AE11F4801F3FF4F1AE1022DA602046FFF7D3FEEAE600BFDB57000859
:205A8000002800F057822DE9F04182B00446036813F0010F37D0A54A936803F00C03D268A7
:205AA0000C2B23D0082B25D06368B3F5803F4ED0B3F5A02F51D09D4B1A6822F480321A6000
:205AC0001A6822F480221A606368002B52D0FCF729FC0546954E336813F4003F13D1FCF7FC
:205AE00021FC401B6428F6D903202CE202F00302032AD9D18D4B1B6813F4003F03D0636895
:205B0000002B00F01982236813F0020F5DD0874A936803F00C03D2680C2B3AD0042B3CD07F
:205B2000E368002B77D0814A136843F480731360FCF7F8FB05467D4E336813F4806F61D106
:205B4000FCF7F0FB401B0228F6D90320FBE1774A136843F480331360B6E703F18043A3F58F
:205B60003C331A6842F480221A601A6842F480321A60A9E7FCF7D6FB05466C4E336813F403
:205B8000003FC0D0FCF7CEFB401B6428F6D90320D9E102F00302022AC2D1644B1B6813F4F8
:205BA000806F03D0E368002B00F0C8815F4A5368216923F0FE4343EA016353605C4B1868C7
:205BC000FCF7F2F8002840F0BB81236813F0080F4CD063699BB3554AD2F8943043F0010315
:205BE000C2F89430FCF79EFB0546504ED6F8943013F0020F3AD1FCF795FB401B0228F5D92B
:205C00000320A0E1494A5368216923F0FE4343EA01635360D9E7454A136823F48073136029
:205C2000FCF780FB0546414E336813F4806FCCD0FCF778FB401B0228F6D9032083E13B4A29
:205C4000D2F8943023F00103C2F89430FCF76AFB0546364ED6F8943013F0020F06D0FCF78B
:205C600061FB401B0228F5D903206CE1236813F0040F00F082802D4B9B6D13F0805F36D109
:205C80002A4B9A6D42F080529A659B6D03F080530193019B0125274B1B6813F4807F28D06E
:205CA000A368012B39D0052B46D0204BD3F8902022F00102C3F89020D3F8902022F0040265
:205CC000C3F89020A368002B44D0FCF72BFB0646164F41F28838D7F8903013F0020F4BD193
:205CE000FCF720FB801B4045F5D903202BE10025D1E7104A136843F480731360FCF712FB2A
:205D000006460C4F3B6813F4807FC9D1FCF70AFB801B0228F6D9032015E1044AD2F890301C
:205D200043F00103C2F89030CCE700BF0010024008000020007000408A4BD3F8902042F094
:205D40000402C3F89020D3F8902042F00102C3F89020B7E7FCF7E6FA0646824F41F2883836
:205D6000D7F8903013F0020F06D0FCF7DBFA801B4045F5D90320E6E0E5B9236813F0200FB0
:205D800035D0A369E3B1774AD2F8983043F00103C2F89830FCF7C6FA0546724ED6F89830FE
:205DA00013F0020F23D1FCF7BDFA401B0228F5D90320C8E06B4A936D23F080539365DCE7BD
:205DC000684AD2F8983023F00103C2F89830FCF7A9FA0546634ED6F8983013F0020F06D0D4
:205DE000FCF7A0FA401B0228F5D90320ABE0E369002B00F0A7805B4A926802F00C020C2AB2
:205E000069D0022B1DD0574B1A6822F080721A60DA6822F00302DA60DA6822F0887222F496
:205E20008032DA60FCF77EFA04464E4D2B6813F0007F4ED0FCF776FA001B0228F6D9032059
:205E400081E0484A136823F080731360FCF76AFA0546444E336813F0007F06D0FCF762FAE5
:205E6000401B0228F6D903206DE03E4AD1683E4B0B40216A0B43A16A43EA0123E16A43EA1C
:205E8000C163616A013943EA0113216B4908013943EA4153616B4908013943EA4163D36065
:205EA000136843F080731360D36843F08073D360FCF738FA04462B4D2B6813F0007F06D167
:205EC000FCF730FA001B0228F6D903203BE0002039E0002037E0012B38D0224BDB6803F00C
:205EE0000301226A914233D103F0F002616A0139B2EB011F2ED103F4FE42A16AB2EB012F86
:205F00002AD103F07842E16AB2EBC16F26D103F4C001226B5208013AB1EB425F20D1626BF5
:205F20005208013A03F0C063B3EB426F14BF0120002008E001207047012004E0012002E08B
:205F4000012000E0002002B0BDE8F0810120FAE70120F8E70120F6E70120F4E70120F2E762
:205F60000120F0E7001002400C809F011A4B9B6803F00C03042B2AD0174B9B6803F00C03B1
:205F8000082B26D0144B9B6803F00C030C2B01D000207047104BDA68DB68C3F303130133B5
:205FA00002F00302032A0C4AD068C0F306200CBF0A4A0B4AB2FBF3F303FB00F0064BDB68CD
:205FC000C3F3416301335B00B0FBF3F07047044870470248704700BF0010024000366E01D9
:205FE0000024F400002800F0BE802DE9F8430C460546864B1B6803F00F038B420BD2834A75
:020000040800F2
:20600000136823F00F030B431360136803F00F038B4240F0AA802B6813F0010F00F0A980B9
:206020006A68032A30D0022A68D0794B1B6813F4806F00F09C80FFF799FF764B98426AD948
:20604000734A936823F0F00343F0800393604FF080096F4A936823F0030369680B43936032
:20606000FCF760F906466A4F41F28838BB6803F00C036A68B3EB820F50D0FCF753F9801BBC
:206080004045F3D90320BFE0614A126812F0007F01D10120B8E05E49CA68C968C1F30311EA
:2060A000013102F00302032A594AD268C2F306220CBF59485948B0FBF1F101FB02F25449A9
:2060C000C968C1F3416101314900B2FBF1F251498A421AD94E4A926812F0F00F04D013F06B
:2060E0000209B6D0AB689BB9494A936823F0F00343F0800393604FF08009AAE7444B1B6800
:2061000013F4003F97D101207EE04FF00009A0E74FF000099DE74FF000099AE72B6813F058
:20612000020F29D1B9F1800F40D1394A936823F0F00393603AE0354A136823F00F032343F4
:206140001360FCF7EFF80646304F41F288383B6803F00F03A3422FD0FCF7E4F8801B4045B9
:20616000F5D9032050E00120704701204CE001204AE013F0020F19D013F0040F04D0244A39
:20618000936843F4E06393602B6813F0080F06D01F4A936823F47C5343F4E06393601C4AF7
:2061A000936823F0F003A9680B439360174B1B6803F00F03A342BED82B6813F0040F06D0A8
:2061C000134A936823F4E063E9680B4393602B6813F0080F07D00E4A9368296923F4605348
:2061E00043EAC1039360FFF7C1FE094B9B68C3F303130B4AD35C03F01F03D840094B186066
:20620000094B1868FBF7D0FDBDE8F883002002400010024000B4C40400366E010024F400DE
:2062200098E601080000002008000020014B1868704700BF00000020054B9B68C3F3C2233F
:20624000044AD35C03F01F03034A1068D840704700100240A8E60108000000200F2303607A
:206260000B4B9A6802F0030242609A6802F0F00282609A6802F4E062C2609B68DB0803F42C
:20628000E0630361034B1B6803F00F030B60704700100240002002402DE9F04182B00446E8
:2062A000036813F4002F5FD02D4B9B6D13F0805F26D12B4B9A6D42F080529A659B6D03F03A
:2062C00080530193019B0127264A136843F480731360FCF727F80546224E336813F4807F9D
:2062E00040F08581FCF71EF8401B0228F5D90320002F3AD01A4A936D23F08053936534E05A
:206300000027E1E7226D9A4212D0154AD2F8903023F44073D2F8901041F48031C2F89010E4
:20632000D2F8901021F48031C2F89010C2F8903013F0010F00F06281FBF7F4FF0546084EED
:2063400041F28838D6F8903013F0020F40F05681FBF7E8FF401B4045F4D90320C8E700BF8A
:2063600000100240007000400020236813F0010F08D0A84AD2F8883023F0030361680B43E1
:20638000C2F88830236813F0020F08D0A14AD2F8883023F00C03A1680B43C2F88830236831
:2063A00013F0040F08D09B4AD2F8883023F03003E1680B43C2F88830236813F0080F08D0BC
:2063C000944AD2F8883023F0C00321690B43C2F88830236813F0100F08D08E4AD2F888305E
:2063E00023F4407361690B43C2F88830236813F0200F08D0874AD2F8883023F44063A1699D
:206400000B43C2F88830236813F0400F08D0814AD2F8883023F44053E1690B43C2F8883006
:20642000236813F0800F08D07A4AD2F8883023F44043216A0B43C2F88830236813F4807FAB
:2064400008D0744AD2F8883023F44033616A0B43C2F88830236813F4003F08D06D4AD2F8E5
:206460009C3023F00303A16A0B43C2F89C30236813F4007F08D0674AD2F8883023F44023C2
:20648000E16A0B43C2F88830236813F4806F0CD0604AD2F8883023F44013216B0B43C2F86A
:2064A0008830236BB3F5801F79D0236813F4006F0CD0584AD2F8883023F44003616B0B4391
:2064C000C2F88830636BB3F5800F6DD0236813F4805F0CD04F4AD2F8883023F04073A16BCE
:2064E0000B43C2F88830A36BB3F1807F61D0236813F4005F0CD0474AD2F8883023F0406364
:20650000E16B0B43C2F88830E36BB3F1006F55D0236813F4804F0CD03E4AD2F8883023F08F
:206520004063216C0B43C2F88830236CB3F1006F49D0236813F4004F0CD0364AD2F88830F1
:2065400023F04053616C0B43C2F88830636CB3F1805F3DD0236813F4803F0CD02D4AD2F83B
:20656000883023F04043A16C0B43C2F88830A36CB3F1804F31D0236813F4802F0CD0254AF1
:20658000D2F89C3023F44013E16C0B43C2F89C30E36CB3F5001F25D002B0BDE8F081D368CC
:2065A00043F48013D36080E7D36843F48013D3608CE7D36843F48013D36098E7D36843F4A3
:2065C0008013D360A4E7D36843F48013D360B0E7D36843F48033D360BCE7D36843F480337B
:2065E000D360C8E7D36843F48013D360D4E7094BD3F8903013F440737FF484AE054AD2F86F
:20660000903023F44073216D0B43C2F8903000206EE600BF001002402DE9F04782B08146CF
:206620000F4616461D46FBF77DFE0A9B2B44A3EB0008FBF777FE82462C4B1B68C3F3CB3352
:2066400008FB03F30193D9F80020946837EA04040CBF01230023B34244D0B5F1FF3FF4D0D4
:20666000FBF760FEA0EB0A00404507D2019B002B08BF9846019B013B0193E4E7D9F8002043
:20668000536823F0E0035360D9F80430B3F5827F0CD0D9F82830B3F5005F16D0012389F851
:2066A0005D30002389F85C3003201CE0D9F80830B3F5004F02D0B3F5806FEAD1D9F80020E9
:2066C000136823F040031360E3E7D9F80020136823F400531360D9F80020136843F400536D
:2066E0001360DBE7002002B0BDE8F087000000202DE9F04782B080460C4615461E460023DE
:206700008DF80330FBF70EFE0A9F37443F1AFBF709FE8146D8F800A0334B1B6803EB8303A1
:20672000C3EBC3031B0D07FB03F30193D8F8002002E0B6F1FF3F11D1936803EA040CAC45AF
:206740004ED0B4F5C06FF4D1002DF2D19AF80C30DBB28DF803309DF80330EAE7FBF7E2FD11
:20676000A0EB0900B84207D2019B002B08BF1F46019B013B0193D9E7D8F80020536823F0D5
:20678000E0035360D8F80430B3F5827F0CD0D8F82830B3F5005F16D0012388F85D30002371
:2067A00088F85C3003201CE0D8F80830B3F5004F02D0B3F5806FEAD1D8F80020136823F00D
:2067C00040031360E3E7D8F80020136823F400531360D8F80020136843F400531360DBE7C7
:2067E000002002B0BDE8F0870000002070B582B004460D46164600920B4600224FF4C051E2
:20680000FFF776FFB0B900962B46002280212046FFF702FFA8B900962B4600224FF4C0618F
:206820002046FFF765FF50B1236E43F020032366032004E0236E43F020032366032002B0DB
:2068400070BD236E43F0200323660320F7E700286DD010B50446436A33B94368B3F5827F39
:2068600005D00023C36102E00023036143610023A36294F85D30002B53D0022384F85D3032
:206880002268136823F040031360E368B3F5E06F8CBF00210121090323F40063B3F5E06FDD
:2068A0001CBF0023A3622268636803F48273A06800F404400343206900F002000343606984
:2068C00000F001000343A06900F400700343E06900F038000343206A00F080000343A06ACD
:2068E00000F40050034313602268636A03F01003606B00F008000343E06800F470600343E3
:20690000608B00F0040003430B4353602268D36923F40063D36100202066012384F85D300A
